:100000000C945E000C9486000C9486000C94860080
:100010000C9486000C9486000C9486000C94860048
:100020000C9486000C9486000C9486000C94860038
:100030000C9486000C9486000C9486000C94860028
:100040000C94DF030C9486000C944F040C94290448
:100050000C9486000C9486000C9486000C94860008
:100060000C9486000C9486000000000024002700F9
:100070002A0000000008000201000003040700003D
:10008000000000000000010204081020408001026E
:1000900004081020010204081020000000002500C0
:1000A00028002B00040404040404040402020202D5
:1000B00002020303030303039604480611241FBE30
:1000C000CFEFD8E0DEBFCDBF11E0A0E0B1E0E0E1CE
:1000D000FFE002C005900D92A831B107D9F721E0E9
:1000E000A8E1B1E001C01D92A53FB207E1F710E021
:1000F000CDE5D0E004C02197FE010E945006CC352A
:10010000D107C9F70E945B050C947B070C94000093
:1001100090E0FC01EE58FF4F2491FC01EA57FF4F9D
:100120003491FC01EC55FF4FE491EE23B9F022230A
:1001300039F02330F1F098F4213009F1223019F12F
:10014000F0E0EE0FFF1FE656FF4FA591B4918FB779
:10015000F894EC9130953E233C938FBF089527305F
:10016000A9F02830C9F0243059F7809180008F7DA4
:1001700003C0809180008F7780938000E1CF84B5A9
:100180008F7784BDDDCF84B58F7DFBCF8091B000AC
:100190008F778093B000D4CF8091B0008F7DF9CF5E
:1001A000CF92DF92EF92FF92EEEBF1E02081822F6F
:1001B00090E0019687709927808321FB662760F97C
:1001C000619570E090E080E0982F872F762F66276A
:1001D000322F3170C32EC194D12CF12CE12C760139
:1001E000DD24CC246C297D298E299F2922FB2227FE
:1001F00020F92195622BFF90EF90DF90CF9008952A
:100200008F929F92AF92BF92CF92DF92EF92FF9226
:10021000CF934B01AA24BB24C82DC52ED62EE72E82
:10022000FF24BC2DA42F2091C701222361F0829EC0
:1002300040011124C92D2C9D60011124BD2D249F46
:10024000F0011124AF2FE091CD01E090C801F090B2
:10025000C9013091CA01E31323C09C01220F331F4F
:10026000820F931F8E0D9F1DE091CA01E80FF92F99
:10027000F11DC083E091CB01E80FF92FF11DB08390
:100280002091CC01820F911DFC01A083CF91FF90A2
:10029000EF90DF90CF90BF90AF909F908F90089598
:1002A000880F991F880F991F8E0D9F1D472F552767
:1002B00066277727222349F030E0249F7001259F8D
:1002C000F00C349FF00C11244F2DE80FF92FF11D85
:1002D0004083CACFCF93DF9390E0FC01EA57FF4FF2
:1002E00024918C559F4FFC0184918823D1F090E09C
:1002F000880F991FFC01E859FF4FA591B491FC01AB
:10030000E656FF4FC591D49161110EC09FB7F89486
:100310008C91E22FE0958E238C932881E223E88351
:100320009FBFDF91CF9108958FB7F894EC91E22BA6
:10033000EC938FBFF6CF3FB7F89480911D01909159
:100340001E01A0911F01B091200126B5A89B05C0F8
:100350002F3F19F00196A11DB11D3FBFBA2FA92F44
:10036000982F8827BC01CD01620F711D811D911D41
:1003700042E0660F771F881F991F4A95D1F70895AD
:100380000F931F93CF93DF93CDB7DEB729970FB6A7
:10039000F894DEBF0FBECDBF0E949B010091CE013D
:1003A0001091CF012091D0013091D10160177107D8
:1003B0008207930740F46093CE017093CF0180933E
:1003C000D0019093D1010091CE011091CF012091E5
:1003D000D0013091D101601B710B820B930B6C32F9
:1003E000714081059105C0F2F8948091C30190910C
:1003F000C4019A838983E091C801F091C901DF01AA
:100400001196808189879091BF01E091D201F0918E
:10041000D3018091D401992309F445C09081982B90
:1004200098879081809589238F838F818C8388E042
:100430008B8358856F8149853B812C8189819A8185
:10044000508347FD252F3A952083262F39F0441FEE
:1004500000C000006083000000C0F2CF38E04D9182
:1004600060830000019761F7F093D301E093D2011C
:1004700049873B832C839A83898378940E949B01CC
:100480006093CE017093CF018093D0019093D101FE
:1004900029960FB6F894DEBF0FBECDBFDF91CF9186
:1004A0001F910F9108959081982B98879081809546
:1004B00089238F838F818E8388E08D8358856F8118
:1004C00049853D812E8189819A81508347FD252F61
:1004D00000C000C0208300C000C000C000C000C039
:1004E00060830000262F3A9541F0441F000000C0B1
:1004F00000C000C000C000C0E8CF38E04D9100C08F
:10050000608300C0019709F7F093D301E093D20113
:1005100049873D832E83AFCF8F929F92AF92BF9238
:10052000CF92DF92EF92FF926B017C010E949B01C0
:100530004B015C01C114D104E104F104B9F00E9443
:100540009B01681979098A099B09683E73408105F6
:10055000910580F321E0C21AD108E108F10888EE84
:10056000880E83E0981EA11CB11CE4CFFF90EF9091
:10057000DF90CF90BF90AF909F908F900895AF92F3
:10058000BF92CF92DF92EF92FF920F931F93CF9380
:10059000DF936C017B018B01040F151FEB015E01E2
:1005A000AE18BF08C017D10759F06991D601ED9177
:1005B000FC910190F081E02DC6010995892B79F716
:1005C000C501DF91CF911F910F91FF90EF90DF90C8
:1005D000CF90BF90AF900895FC01538D448D252F8F
:1005E00030E0842F90E0821B930B541710F0CF96CD
:1005F000089501970895FC01918D828D981761F0FF
:10060000A28DAE0FBF2FB11D5D968C91928D9F5F15
:100610009F73928F90E008958FEF9FEF0895FC01F4
:10062000918D828D981731F0828DE80FF11D858DA7
:1006300090E008958FEF9FEF0895FC01918D228D3A
:10064000892F90E0805C9F4F821B91098F739927BF
:10065000089581E291E00E941D0321E0892B09F4B5
:1006600020E0822F089580E090E0892B29F00E94FD
:10067000290381110C9400000895FC01A48DA80F9A
:10068000B92FB11DA35ABF4F2C91848D90E00196D4
:100690008F739927848FA689B7892C93A089B189F4
:1006A0008C91837080648C93938D848D981306C095
:1006B0000288F389E02D80818F7D80830895EF92F9
:1006C000FF920F931F93CF93DF93EC0181E0888F0C
:1006D0009B8D8C8D98131AC0E889F989808185FFDC
:1006E00015C09FB7F894EE89FF896083E889F9897E
:1006F00080818370806480839FBF81E090E0DF9180
:10070000CF911F910F91FF90EF900895F62E0B8DD2
:1007100010E00F5F1F4F0F731127E02E8C8D8E118D
:100720000CC00FB607FCFACFE889F989808185FFF4
:10073000F5CFCE010E943D03F1CFEB8DEC0FFD2FE5
:10074000F11DE35AFF4FF0829FB7F8940B8FEA89AF
:10075000FB8980818062CFCFCF93DF93EC01888DBE
:100760008823B9F0AA89BB89E889F9898C9185FD2C
:1007700003C0808186FD0DC00FB607FCF7CF8C91BA
:1007800085FFF2CF808185FFEDCFCE010E943D0332
:10079000E9CFDF91CF910895CF93DF93EC01898565
:1007A0009A850E94F2068E819F8197FD05C060E0C8
:1007B000DF91CF910C946A01DF91CF9108951F9240
:1007C0000F920FB60F9211242F933F938F939F9305
:1007D000AF93BF938091190190911A01A0911B01D1
:1007E000B0911C013091180123E0230F2D3758F5EB
:1007F0000196A11DB11D20931801809319019093BA
:100800001A01A0931B01B0931C0180911D019091CE
:100810001E01A0911F01B09120010196A11DB11DE3
:1008200080931D0190931E01A0931F01B09320019E
:10083000BF91AF919F918F913F912F910F900FBEDC
:100840000F901F90189526E8230F0296A11DB11D49
:10085000D2CF1F920F920FB60F9211242F933F9376
:100860004F935F936F937F938F939F93AF93BF93B8
:10087000EF93FF9381E291E00E943D03FF91EF919E
:10088000BF91AF919F918F917F916F915F914F91A8
:100890003F912F910F900FBE0F901F9018951F92B0
:1008A0000F920FB60F9211242F938F939F93EF9374
:1008B000FF93E0913101F09132018081E0913701A5
:1008C000F091380182FD1BC0908180913A018F5FC9
:1008D0008F7320913B01821741F0E0913A01F0E0E3
:1008E000EF5DFE4F958F80933A01FF91EF919F91BD
:1008F0008F912F910F900FBE0F901F9018958081B0
:10090000F4CFFC0196E1AFEBB1E001900D929A9526
:10091000E1F7EEEBF1E083E090E0908F878B82E3EC
:1009200090E0928F818F81E080830895CF93DF9351
:10093000CDB7DEB766970FB6F894DEBF0FBECDBF5A
:10094000109224011092230188EE93E0A0E0B0E021
:100950008093250190932601A0932701B09328014D
:100960008AE091E0909322018093210185EC90E050
:1009700090932E0180932D0184EC90E090933001B0
:1009800080932F0180EC90E09093320180933101AD
:1009900081EC90E0909334018093330182EC90E0FD
:1009A000909336018093350186EC90E09093380166
:1009B0008093370110923A0110923B0110923C0152
:1009C00010923D011092DC011092E3011092EA01B5
:1009D0001092EB011092EC011092ED0181E08093F6
:1009E000E9018093E6011092E70192E09093E8011B
:1009F0008093DB0189E090E09093E0018093DF0138
:100A00000E9456069093E5018093E401009709F453
:100A100049C029E0FC0111922A95E9F783E090E0B2
:100A20009093DE018093DD0182E090E09093E201FB
:100A30008093E1018091DC01882339F061E082E05C
:100A40000E946A0182E00E948800E6EAF0E0E491F8
:100A5000F0E0EE0FFF1FE656FF4F859194919093C3
:100A6000EF018093EE01E8E8F0E0E491E093F0011B
:100A700086E1EBEDF1E0DE01119601900D928A9591
:100A8000E1F7CE0101960E948104CE0101960E94F9
:100A9000CC0366960FB6F894DEBF0FBECDBFDF91D4
:100AA000CF9108951092E0011092DF011092DE01C3
:100AB0001092DD01B9CF789484B5826084BD84B58D
:100AC000816084BD85B5826085BD85B5816085BD49
:100AD00080916E00816080936E0010928100809101
:100AE0008100826080938100809181008160809389
:100AF0008100809180008160809380008091B100AE
:100B000084608093B1008091B00081608093B000D8
:100B100080917A00846080937A0080917A0082606C
:100B200080937A0080917A00816080937A0080912E
:100B30007A00806880937A001092C1008091C5018C
:100B40009091C60197FD07C061E00E946A01809103
:100B5000C5010E94880081E08093C001E0913101CD
:100B6000F091320182E08083E0912D01F0912E011D
:100B70001082E0912F01F09130018FEC8083109270
:100B80003901E0913501F091360186E08083E091F2
:100B90003301F0913401808180618083E0913301E1
:100BA000F0913401808188608083E0913301F0917D
:100BB0003401808180688083E0913301F0913401B9
:100BC00080818F7D808300E010E00E94D0006B0167
:100BD0007C01D0E0C0E08091D5019091D601C8178A
:100BE000D90704F58091C1019091C201C817D907B6
:100BF00028F4B701A601CE010E9400018091C8012E
:100C00009091C901892B11F00E94C0016091D70118
:100C10007091D801072E000C880B990B0E948C0252
:100C20002196D9CF0E94D0006B017C01C091D501E3
:100C3000D091D6012197D7FD1FC08091C10190911D
:100C4000C201C817D90728F4B701A601CE010E9436
:100C500000018091C8019091C901892B11F00E9477
:100C6000C0016091D7017091D801072E000C880B4C
:100C7000990B0E948C02DECF0115110509F4A5CF56
:100C80000E942903882309F4A0CF0E9400009DCF71
:100C90008FEB91E00E94CC038BED91E00C94CC03A0
:100CA000EE0FFF1F0590F491E02D09940F931F9311
:100CB000CF93DF938230910510F482E090E0E091D1
:100CC000F301F091F40130E020E0B0E0A0E03097D3
:100CD00099F42115310509F44AC0281B390B243039
:100CE0003105D8F58A819B816115710589F1FB0178
:100CF00093838283FE0111C040815181028113815F
:100D000048175907E0F04817590799F4109761F010
:100D100012960C93129713961C933296CF01DF9183
:100D2000CF911F910F9108950093F3011093F40157
:100D3000F4CF2115310551F04217530738F0A901BE
:100D4000DB019A01BD01DF01F801C1CFEF01F9CF4D
:100D50009093F4018093F301CDCFFE01E20FF31FD6
:100D6000819391932250310939832883D7CF2091E1
:100D7000F1013091F201232B41F4209102013091D5
:100D800003013093F2012093F10120910001309191
:100D900001012115310541F42DB73EB74091040101
:100DA00050910501241B350BE091F101F091F20106
:100DB000E217F307A0F42E1B3F0B2817390778F032
:100DC000AC014E5F5F4F2417350748F04E0F5F1F91
:100DD0005093F2014093F101819391939FCFF0E002
:100DE000E0E09CCFCF93DF930097E9F0FC013297CE
:100DF00013821282A091F301B091F401ED0130E071
:100E000020E01097A1F420813181820F931F20915F
:100E1000F1013091F2012817390709F061C0F09310
:100E2000F201E093F101DF91CF910895EA01CE172D
:100E3000DF07E8F54A815B819E0141155105B1F755
:100E4000E901FB83EA8349915991C40FD51FEC173F
:100E5000FD0761F4808191810296840F951FE9015D
:100E600099838883828193819B838A83F0E0E0E089
:100E700012968D919C9113970097B9F52D913C9105
:100E80001197CD010296820F931F2091F1013091AD
:100E9000F2012817390739F6309751F51092F4010D
:100EA0001092F301B093F201A093F101BCCFD38370
:100EB000C28340815181840F951FC817D90761F4FF
:100EC0004E5F5F4F88819981480F591F518340833E
:100ED0008A819B81938382832115310509F0B0CFEC
:100EE000F093F401E093F3019ECFFD01DC01C0CF4C
:100EF00013821282D7CF10E0CDE5D0E004C0FE010E
:100F00000E9450062196CE35D107C9F7F894FFCF3D
:100F10000000F5018000000000005F03BF02EC024A
:080F2000AC031D03FB020F03EB
:00000001FF
